{"abi":[{"type":"function","name":"balance","inputs":[],"outputs":[{"name":"","type":"uint256","internalType":"uint256"}],"stateMutability":"view"},{"type":"function","name":"decrement","inputs":[],"outputs":[],"stateMutability":"nonpayable"},{"type":"function","name":"increment","inputs":[],"outputs":[],"stateMutability":"nonpayable"},{"type":"function","name":"number","inputs":[],"outputs":[{"name":"","type":"uint256","internalType":"uint256"}],"stateMutability":"view"},{"type":"function","name":"setNumber","inputs":[{"name":"newNumber","type":"uint256","internalType":"uint256"}],"outputs":[],"stateMutability":"nonpayable"}],"bytecode":{"object":"0x6080604052348015600e575f5ffd5b506102648061001c5f395ff3fe608060405234801561000f575f5ffd5b5060043610610055575f3560e01c80632baeceb7146100595780633fb5c1cb146100635780638381f58a1461007f578063b69ef8a81461009d578063d09de08a146100bb575b5f5ffd5b6100616100c5565b005b61007d60048036038101906100789190610140565b6100dd565b005b6100876100e6565b604051610094919061017a565b60405180910390f35b6100a56100eb565b6040516100b2919061017a565b60405180910390f35b6100c36100f1565b005b5f5f8154809291906100d6906101c0565b9190505550565b805f8190555050565b5f5481565b60015481565b5f5f815480929190610102906101e7565b9190505550565b5f5ffd5b5f819050919050565b61011f8161010d565b8114610129575f5ffd5b50565b5f8135905061013a81610116565b92915050565b5f6020828403121561015557610154610109565b5b5f6101628482850161012c565b91505092915050565b6101748161010d565b82525050565b5f60208201905061018d5f83018461016b565b92915050565b7f4e487b71000000000000000000000000000000000000000000000000000000005f52601160045260245ffd5b5f6101ca8261010d565b91505f82036101dc576101db610193565b5b600182039050919050565b5f6101f18261010d565b91507fffffffffffffffffffffffffffffffffffffffffffffffffffffffffffffffff820361022357610222610193565b5b60018201905091905056fea26469706673582212205c7507435da06c158ac17d2c7293f7da55e09078d5aa9fde676bf84a8ad7642664736f6c634300081c0033","linkReferences":{}},"methodIdentifiers":{"balance()":"b69ef8a8","decrement()":"2baeceb7","increment()":"d09de08a","number()":"8381f58a","setNumber(uint256)":"3fb5c1cb"},"id":20}