{"abi":[{"type":"function","name":"deposit","inputs":[],"outputs":[],"stateMutability":"payable"},{"type":"function","name":"withdraw","inputs":[{"name":"amount","type":"uint256","internalType":"uint256"}],"outputs":[],"stateMutability":"payable"},{"type":"event","name":"Deposit","inputs":[{"name":"user","type":"address","indexed":true,"internalType":"address"},{"name":"amount","type":"uint256","indexed":false,"internalType":"uint256"}],"anonymous":false},{"type":"event","name":"Withdrawal","inputs":[{"name":"user","type":"address","indexed":true,"internalType":"address"},{"name":"amount","type":"uint256","indexed":false,"internalType":"uint256"}],"anonymous":false}],"bytecode":{"object":"0x6080604052348015600e575f5ffd5b506105eb8061001c5f395ff3fe608060405260043610610028575f3560e01c80632e1a7d4d1461002c578063d0e30db014610048575b5f5ffd5b61004660048036038101906100419190610315565b610052565b005b6100506101fa565b005b5f8111610094576040517f08c379a000000000000000000000000000000000000000000000000000000000815260040161008b906103c0565b60405180910390fd5b805f5f3373ffffffffffffffffffffffffffffffffffffffff1673ffffffffffffffffffffffffffffffffffffffff1681526020019081526020015f20541015610113576040517f08c379a000000000000000000000000000000000000000000000000000000000815260040161010a9061044e565b60405180910390fd5b805f5f3373ffffffffffffffffffffffffffffffffffffffff1673ffffffffffffffffffffffffffffffffffffffff1681526020019081526020015f205f82825461015e9190610499565b925050819055503373ffffffffffffffffffffffffffffffffffffffff166108fc8290811502906040515f60405180830381858888f193505050501580156101a8573d5f5f3e3d5ffd5b503373ffffffffffffffffffffffffffffffffffffffff167f7fcf532c15f0a6db0bd6d0e038bea71d30d808c7d98cb3bf7268a95bf5081b65826040516101ef91906104db565b60405180910390a250565b5f341161023c576040517f08c379a000000000000000000000000000000000000000000000000000000000815260040161023390610564565b60405180910390fd5b345f5f3373ffffffffffffffffffffffffffffffffffffffff1673ffffffffffffffffffffffffffffffffffffffff1681526020019081526020015f205f8282546102879190610582565b925050819055503373ffffffffffffffffffffffffffffffffffffffff167fe1fffcc4923d04b559f4d29a8bfc6cda04eb5b0d3c460751c2402c5c5cc9109c346040516102d491906104db565b60405180910390a2565b5f5ffd5b5f819050919050565b6102f4816102e2565b81146102fe575f5ffd5b50565b5f8135905061030f816102eb565b92915050565b5f6020828403121561032a576103296102de565b5b5f61033784828501610301565b91505092915050565b5f82825260208201905092915050565b7f41205769746864726177616c206d7573742062652067726561746572207468615f8201527f6e207a65726f2100000000000000000000000000000000000000000000000000602082015250565b5f6103aa602783610340565b91506103b582610350565b604082019050919050565b5f6020820190508181035f8301526103d78161039e565b9050919050565b7f496e737566666963656e742062616c616e636520666f722077697468647261775f8201527f616c210000000000000000000000000000000000000000000000000000000000602082015250565b5f610438602383610340565b9150610443826103de565b604082019050919050565b5f6020820190508181035f8301526104658161042c565b9050919050565b7f4e487b71000000000000000000000000000000000000000000000000000000005f52601160045260245ffd5b5f6104a3826102e2565b91506104ae836102e2565b92508282039050818111156104c6576104c561046c565b5b92915050565b6104d5816102e2565b82525050565b5f6020820190506104ee5f8301846104cc565b92915050565b7f41204465706f736974206d7573742062652067726561746572207468616e207a5f8201527f65726f2100000000000000000000000000000000000000000000000000000000602082015250565b5f61054e602483610340565b9150610559826104f4565b604082019050919050565b5f6020820190508181035f83015261057b81610542565b9050919050565b5f61058c826102e2565b9150610597836102e2565b92508282019050808211156105af576105ae61046c565b5b9291505056fea26469706673582212204da4fabaa37a077f7748e260753681fa72ed599e73ba0996f0be121a386e12e564736f6c634300081c0033","linkReferences":{}},"methodIdentifiers":{"deposit()":"d0e30db0","withdraw(uint256)":"2e1a7d4d"},"id":16}