{"abi":[{"type":"function","name":"deposit","inputs":[],"outputs":[],"stateMutability":"payable"},{"type":"function","name":"getBalance","inputs":[],"outputs":[{"name":"","type":"uint256","internalType":"uint256"}],"stateMutability":"view"},{"type":"function","name":"withdraw","inputs":[{"name":"amount","type":"uint256","internalType":"uint256"}],"outputs":[],"stateMutability":"payable"},{"type":"event","name":"Deposit","inputs":[{"name":"user","type":"address","indexed":true,"internalType":"address"},{"name":"amount","type":"uint256","indexed":false,"internalType":"uint256"}],"anonymous":false},{"type":"event","name":"Withdrawal","inputs":[{"name":"user","type":"address","indexed":true,"internalType":"address"},{"name":"amount","type":"uint256","indexed":false,"internalType":"uint256"}],"anonymous":false}],"bytecode":{"object":"0x6080604052348015600e575f5ffd5b506109fc8061001c5f395ff3fe608060405260043610610033575f3560e01c806312065fe0146100375780632e1a7d4d14610061578063d0e30db01461007d575b5f5ffd5b348015610042575f5ffd5b5061004b610087565b60405161005891906105f0565b60405180910390f35b61007b60048036038101906100769190610637565b6100ca565b005b6100856102d9565b005b5f5f5f3373ffffffffffffffffffffffffffffffffffffffff1673ffffffffffffffffffffffffffffffffffffffff1681526020019081526020015f2054905090565b5f811161010c576040517f08c379a0000000000000000000000000000000000000000000000000000000008152600401610103906106e2565b60405180910390fd5b805f5f3373ffffffffffffffffffffffffffffffffffffffff1673ffffffffffffffffffffffffffffffffffffffff1681526020019081526020015f205410156101915f5f3373ffffffffffffffffffffffffffffffffffffffff1673ffffffffffffffffffffffffffffffffffffffff1681526020019081526020015f20546103bd565b6040516020016101a191906107c2565b604051602081830303815290604052906101f1576040517f08c379a00000000000000000000000000000000000000000000000000000000081526004016101e8919061082b565b60405180910390fd5b50805f5f3373ffffffffffffffffffffffffffffffffffffffff1673ffffffffffffffffffffffffffffffffffffffff1681526020019081526020015f205f82825461023d9190610878565b925050819055503373ffffffffffffffffffffffffffffffffffffffff166108fc8290811502906040515f60405180830381858888f19350505050158015610287573d5f5f3e3d5ffd5b503373ffffffffffffffffffffffffffffffffffffffff167f7fcf532c15f0a6db0bd6d0e038bea71d30d808c7d98cb3bf7268a95bf5081b65826040516102ce91906105f0565b60405180910390a250565b5f341161031b576040517f08c379a00000000000000000000000000000000000000000000000000000000081526004016103129061091b565b60405180910390fd5b345f5f3373ffffffffffffffffffffffffffffffffffffffff1673ffffffffffffffffffffffffffffffffffffffff1681526020019081526020015f205f8282546103669190610939565b925050819055503373ffffffffffffffffffffffffffffffffffffffff167fe1fffcc4923d04b559f4d29a8bfc6cda04eb5b0d3c460751c2402c5c5cc9109c346040516103b391906105f0565b60405180910390a2565b60605f60016103cb84610487565b0190505f8167ffffffffffffffff8111156103e9576103e861096c565b5b6040519080825280601f01601f19166020018201604052801561041b5781602001600182028036833780820191505090505b5090505f82602001820190505b60011561047c578080600190039150507f3031323334353637383961626364656600000000000000000000000000000000600a86061a8153600a858161047157610470610999565b5b0494505f8503610428575b819350505050919050565b5f5f5f90507a184f03e93ff9f4daa797ed6e38ed64bf6a1f01000000000000000083106104e3577a184f03e93ff9f4daa797ed6e38ed64bf6a1f01000000000000000083816104d9576104d8610999565b5b0492506040810190505b6d04ee2d6d415b85acef81000000008310610520576d04ee2d6d415b85acef8100000000838161051657610515610999565b5b0492506020810190505b662386f26fc10000831061054f57662386f26fc10000838161054557610544610999565b5b0492506010810190505b6305f5e1008310610578576305f5e100838161056e5761056d610999565b5b0492506008810190505b612710831061059d57612710838161059357610592610999565b5b0492506004810190505b606483106105c057606483816105b6576105b5610999565b5b0492506002810190505b600a83106105cf576001810190505b80915050919050565b5f819050919050565b6105ea816105d8565b82525050565b5f6020820190506106035f8301846105e1565b92915050565b5f5ffd5b610616816105d8565b8114610620575f5ffd5b50565b5f813590506106318161060d565b92915050565b5f6020828403121561064c5761064b610609565b5b5f61065984828501610623565b91505092915050565b5f82825260208201905092915050565b7f41205769746864726177616c206d7573742062652067726561746572207468615f8201527f6e207a65726f2100000000000000000000000000000000000000000000000000602082015250565b5f6106cc602783610662565b91506106d782610672565b604082019050919050565b5f6020820190508181035f8301526106f9816106c0565b9050919050565b5f81905092915050565b7f496e737566666963656e742062616c616e636520666f722077697468647261775f8201527f616c2120596f75722042616c616e63653a200000000000000000000000000000602082015250565b5f610764603283610700565b915061076f8261070a565b603282019050919050565b5f81519050919050565b8281835e5f83830152505050565b5f61079c8261077a565b6107a68185610700565b93506107b6818560208601610784565b80840191505092915050565b5f6107cc82610758565b91506107d88284610792565b915081905092915050565b5f601f19601f8301169050919050565b5f6107fd8261077a565b6108078185610662565b9350610817818560208601610784565b610820816107e3565b840191505092915050565b5f6020820190508181035f83015261084381846107f3565b905092915050565b7f4e487b71000000000000000000000000000000000000000000000000000000005f52601160045260245ffd5b5f610882826105d8565b915061088d836105d8565b92508282039050818111156108a5576108a461084b565b5b92915050565b7f41204465706f736974206d7573742062652067726561746572207468616e207a5f8201527f65726f2100000000000000000000000000000000000000000000000000000000602082015250565b5f610905602483610662565b9150610910826108ab565b604082019050919050565b5f6020820190508181035f830152610932816108f9565b9050919050565b5f610943826105d8565b915061094e836105d8565b92508282019050808211156109665761096561084b565b5b92915050565b7f4e487b71000000000000000000000000000000000000000000000000000000005f52604160045260245ffd5b7f4e487b71000000000000000000000000000000000000000000000000000000005f52601260045260245ffdfea2646970667358221220b5e60cc90c692d316e15f7f0b06ced13ce697637939bdeb65433d88f4d7030e464736f6c634300081c0033","linkReferences":{}},"methodIdentifiers":{"deposit()":"d0e30db0","getBalance()":"12065fe0","withdraw(uint256)":"2e1a7d4d"},"id":5}